:100000000C9400050C94DF2D0C94B82D0C9428054D
:100010000C9428050C9428050C9428050C942805AC
:100020000C9428050C9428050C9428050C9428059C
:100030000C9428050C9428050C9428050C9428058C
:100040000C946E2D0C9428050C942C2E0C94062EDA
:100050000C9428050C9428050C9428050C9428056C
:100060000C945E2E0C942805282859635C28636143
:100070005B5A5F0362285B28282865424161282873
:1000800059285C2863615B5A5F0359285B2828590B
:10009000654241612828595C282863445B5A5F43C4
:1000A00043626726590365424161282828285C2855
:1000B0006263675B5A28602828415928286665438F
:1000C0004428285B282828666424610028285F28A3
:1000D00043282859666424614459435960265903CA
:1000E0006664246159615F5B5A4259444464244404
:1000F000495400444500455300554B0055530021D9
:10010000402324255E262A28295F2B7B7D7C7E3A8E
:10011000227E3C3E3F2D3D5B5D5C203B27602C2ECC
:100120002F2F2A2D2B0D127C1F11272F14706C7D61
:100130007169277A756B72744A5A7EFF2828285590
:10014000282868284F575428285857535856441E73
:1001500063440E161E26252E363D3E46454E55540A
:100160005B4C525D6141494A351E1F2021222324E8
:100170002526272D2E2F30333431643637380E4E56
:1001800055545B4C525D6141494A352D2E2F303319
:100190003432643637382D2D2D005553420028282F
:1001A0002828282828282828282828282828285E99
:1001B0002828680A0F2828280106050B102828037C
:1001C00002070C121128282304080E0D13282826D4
:1001D0002722091D1828282825211C1716282864DD
:1001E000201B1A1415282824441F42196128282886
:1001F00059285B5F662855281E5A28442828284419
:10020000282828285428280F28121728282814249A
:10021000101318164F282860116167152828282800
:100220002828052703070C0809221B21201F252643
:100230001A190A0D060E1C040B021D010F101112D3
:100240001318171615141E4F54282361605B5A4467
:100250002842592864244455282828282828282852
:1002600028282828282863284F5754285856535898
:100270005728446761601E0F1011121318171615C6
:1002800014242828286028282828282828282828CE
:1002900028282828282828282828282828282828DE
:1002A00028282828282828282828282828282828CE
:1002B00028282828282828282828282828282828BE
:1002C00028282828282828282828282828282828AE
:1002D000282828282828282828282828282828289E
:1002E000282828282828282828282828282828288E
:1002F000282828282828282828282828282828287E
:10030000282828282828282828282828282828286D
:1003100028282828282828282828282828284F530B
:100320004320737461727465642E004F53432064DC
:100330006964206E6F742073746172742E00000003
:1003400000000000000000000000000000000000AD
:10035000000000000000000000000000000000009D
:10036000F0FFCF0FF80100000000000000000000C7
:10037000F0FF8F0FF80000000000000000000000F8
:10038000F0FF8F1F7C000000000000000000000054
:10039000F0FF071F7C0000000000000000000000CC
:1003A00000E0073F3E0000000000000000000000E9
:1003B00000E0033E3E0000000000000000000000DE
:1003C00000F0017E1F00000000000000000000009F
:1003D00000F8017C0F000000000000000000000099
:1003E00000F800F80F00000000000000000000000E
:1003F000007C00F807000000000000000000000082
:10040000007E00F00780E3FDE11F00000000000017
:10041000003F00F00780E3FCE73F00000000000021
:10042000001F00F80780731CE77800000000000040
:10043000801F00FC0F803B1CE7F0C00000000000A4
:10044000C00F00FC1F803B1CE3E0C0000000000068
:10045000C007003E1F801FFCE1E0C000000000005C
:10046000E003003F3F801FFCE3E0F80700000000CE
:10047000F003001F3E803B1CE7E0F807000000008F
:10048000F8FF8F1F7E807B1CE770C000000000001B
:10049000F8FF8F0FFC80731CE778C000000000009D
:1004A000F8FFCF0FFC80E3FCE33FC000000000003A
:1004B000F8FFEF07F881E3FDE10F00000000000006
:1004C0000000000000000000000000000000C0FF6D
:1004D000FFFFFFFFFFFFFFFFFFFFFFFFFF03000026
:1004E000000000000000000000000000000000F814
:1004F000FFFFFFFFFFFFFFFFFFFFFFFF3F000000C9
:1005000000000000000000000000000000000000EB
:10051000FFFFFFFFFFFFFFFFFFFFFFFF00000000E7
:1005200000000000000000000000000000000000CB
:100530000000000000000000000000000000535414
:100540004152540045584954004B4559424F41527D
:100550004400434F4E4649470055502F444F574E95
:1005600020544F2053454C00FC00F900F600F300E6
:10057000F0002A0045584954004A4F595354494302
:100580004B004B4559424F41524400434F4E464960
:10059000470055502F444F574E20544F2053454C41
:1005A000000D0A4E756D626572206F6620636F6E76
:1005B000662E3A09000D0A53657269616C206E75EA
:1005C0006D62657220696E6465783A09000D0A50A3
:1005D000726F642E737472696E6720696E646578D9
:1005E0003A09000D0A4D66672E737472696E6720B2
:1005F000696E6465783A09000D0A52657669736917
:100600006F6E2049443A0909000D0A50726F6475F3
:1006100063742049443A0909000D0A56656E646FF7
:1006200072202049443A0909000D0A4D61782E7064
:1006300061636B65742073697A653A09000D0A4439
:1006400065766963652050726F746F636F6C3A09E9
:10065000000D0A44657669636520537562636C61B9
:1006600073733A09000D0A44657669636520636C0B
:100670006173733A0909000D0A5553422076657279
:1006800073696F6E3A0909000D0A446573637269F4
:1006900070746F7220747970653A09000D0A4465B0
:1006A0007363726970746F72204C656E6774683A18
:1006B00009000D0A4572726F722072656164696E7D
:1006C0006720646576696365206465736372697029
:1006D000746F722E204572726F7220636F64652092
:1006E000000D0A47657474696E67206465766963F6
:1006F000652064657363726970746F720000000036
:1007000000240027002A0000000000250028002BFC
:100710000000000000230026002900040404040453
:10072000040404020202020202030303030303019E
:100730000204081020408001020408102001020475
:100740000810200000000800020100000304070058
:100750000000000000000040020302030401010445
:10076000050800FF06FF07FF013F0000028A200680
:10077000C5FABC022108C55A61772807220AC53A82
:10078000A5244A725600230DC5DA493228A524193A
:10079000943200240BC55AD9521335658C00250DAF
:1007A000C57A499414B33029252100260EC55A591B
:1007B000122591942452A4A4002707C55A619D19BB
:1007C0002808C57A8DAD15002908C53A69B1AD066E
:1007D0002A0BC5FA581449432495012B0AC5FA6817
:1007E000180D5298032C08C5FACC6196012D08C546
:1007F000FAE42127012E07C5FA1C73002F0BC57AD6
:1008000061166661168600300AC5DA5225B1942257
:100810001D3108C5FA99D83603320AC5DA52319229
:10082000C22106330AC5DA522D4DA24807340CC541
:10083000BA611225D190853900350AC5BA4312AE86
:1008400061B203360AC5DA523855A24807370BC5DC
:10085000BA43128559314700380AC5DA5249AA44C9
:10086000910E390AC5DA52258AC648073A08C5FAF0
:10087000B41CCF013B09C5FAB41C0AB30C3C09C532
:10088000FA48564CCB003D09C5FA94211E72103E21
:1008900009C5DA6931AB23003F0AC53A5231AB438F
:1008A0003902400BC5DA52255112259D01410CC574
:1008B000DA52254A86244AA218420AC5BA5365AAC2
:1008C00044C90E4308C5DA4BD83A03440CC5BA53A1
:1008D000254AA2244A76004509C5DA4B3885E90C39
:1008E000460AC5DA4B184E610E01470CC5DA4B9823
:1008F000285112453300480EC5BA5112254312251E
:100900005112C5004908C5DA5BD836034A09C5DA71
:100910005BD8A423004B0CC5BA51122553254AA21B
:10092000184C07C5BA61D7194D0EC5BA51322443C8
:1009300012255112C5004E0DC5BA51A2244A45498F
:100940009428064F0CC5DA52254AA2248A74005016
:100950000BC5BA53254AA6308700510CC5DA52257B
:100960004AA2248A4405520BC5BA53254AA64A1402
:10097000035309C5DA4BAA86C90E5408C5BA8314B5
:100980007607550DC5BA511225511225513403561B
:100990000CC5BA5112255112459A0E570EC5BA51BF
:1009A00012255132244312C500580CC5BA511245C4
:1009B0009A54896200590CC5BA5112255134263B0C
:1009C000005A0AC5BA4398350E31005B08C53A5340
:1009D000D8E3025C0BC51A611AA6611A26005D08ED
:1009E000C53A639F16005E09C5FA5952CBC9005F2C
:1009F00007C5FADC870400000004FFFF0000E82FB1
:100A000011241FBECFEFD8E0DEBFCDBF26E0A6E7A2
:100A1000B2E001C01D92A334B207E1F712E0A0E0FA
:100A2000B1E0E0EFF0E702C005900D92A637B10704
:100A3000D9F714E0C0E0D5E004C02197FE010E9480
:100A40006938CF3FD107C9F70E94C9310C94763875
:100A50000C940000662329F06A3019F0862F90E08C
:100A600008958FEF9FEF0895AF92BF92CF92DF92DC
:100A7000EF92FF920F93CF93DF93EC01DA017901AC
:100A8000942F9770E1E0F0E09F01092E01C0220F42
:100A90000A94EAF7522F6E018AE8C80ED11CF601BB
:100AA000808140E0823018F4422F813049F15D01AD
:100AB000F8EFAF22E8ADF9AD28813981D901509620
:100AC0008C918A9D90018B9D300D1124620F731FB4
:100AD000DF01A60FB71F01111AC0EA0EFB1E8C9191
:100AE000842B85278D93AE15BF05C9F7DF91CF9174
:100AF0000F91FF90EF90DF90CF90BF90AF9008954F
:100B000050E0D5CF440F550FE114F10479F33C9137
:100B1000342B35273C939F5F9770E1E0EE1AF10884
:100B20009111F0CF2CAD3DADA20FB31FF601808126
:100B3000823028F4813009F051E041E0E5CF51E006
:100B4000E3CF80E0089590E080E008958CBD9DBDE6
:100B5000089580933B0608959B01DC011896ED9162
:100B6000FC9141E067E10994833081F028F4813001
:100B700099F08230A9F008958730A9F08830C9F043
:100B80008430B1F4809180008F7D03C0809180001B
:100B90008F7780938000089584B58F7784BD089502
:100BA00084B58F7DFBCF8091B0008F778093B000AC
:100BB00008958091B0008F7DF9CFCF93DF93282FD8
:100BC00030E0F901ED5BF84F8491F901E15DF84FF8
:100BD000D491F901E55EF84FC491CC23A1F08111C5
:100BE0000E94B405EC2FF0E0EE0FFF1FEF5EF84F10
:100BF000A591B491EC91ED2381E090E009F480E0BF
:100C0000DF91CF91089580E090E0FACF1F93CF93CA
:100C1000DF93282F30E0F901ED5BF84F8491F90163
:100C2000E15DF84FD491F901E55EF84FC491CC2312
:100C3000A9F0162F81110E94B405EC2FF0E0EE0F01
:100C4000FF1FE95FF84FA591B4918FB7F894EC912D
:100C5000111108C0D095DE23DC938FBFDF91CF91B7
:100C60001F910895DE2BF8CFCF93DF9390E0FC0126
:100C7000E15DF84F2491855E984FFC0184918823B3
:100C8000D1F090E0880F991FFC01E350F94FA59136
:100C9000B491FC01E95FF84FC591D491623071F4D1
:100CA0009FB7F8943C91822F809583238C93E881A1
:100CB0002E2B28839FBFDF91CF9108958FB7F89493
:100CC000EC912E2B2C938FBFF6CF3FB7F8948091E9
:100CD000450390914603A0914703B091480326B580
:100CE000A89B05C02F3F19F00196A11DB11D3FBF64
:100CF000BA2FA92F982F8827BC01CD01620F711D33
:100D0000811D911D42E0660F771F881F991F4A952C
:100D1000D1F708958F929F92AF92BF92CF92DF92B8
:100D2000EF92FF926B017C010E9465064B015C0112
:100D3000C114D104E104F104B9F00E9465066819F8
:100D400079098A099B09683E73408105910580F302
:100D500021E0C21AD108E108F10888EE880E83E08C
:100D6000981EA11CB11CE4CFFF90EF90DF90CF90B4
:100D7000BF90AF909F908F9008952FB7F894609197
:100D800041037091420380914303909144032FBF2C
:100D900008958091240390912303891B990B089552
:100DA000089508950895EF92FF920F931F93CF93A4
:100DB000DF938C017B01D0E0C0E0F701EC0FFD1F59
:100DC0006491662361F0D801ED91FC910190F0816E
:100DD000E02DC8010995892B11F02196EECFCE01A7
:100DE000DF91CF911F910F91FF90EF900895AF92F7
:100DF000BF92CF92DF92EF92FF920F931F93CF9308
:100E0000DF936C017B018B01040F151FEB015E0169
:100E1000AE18BF08C017D10759F06991D601ED91FE
:100E2000FC910190F081E02DC6010995892B79F79D
:100E3000C501DF91CF911F910F91FF90EF90DF904F
:100E4000CF90BF90AF900895FC01538D448D252F16
:100E500030E0842F90E0821B930B541710F0CF9654
:100E6000089501970895FC01918D828D981761F086
:100E7000A28DAE0FBF2FB11D5D968C91928D9F5F9D
:100E80009F73928F90E008958FEF9FEF0895FC017C
:100E9000918D828D981731F0828DE80FF11D858D2F
:100EA00090E008958FEF9FEF0895FC01918D228DC2
:100EB000892F90E0805C9F4F821B91098F73992747
:100EC000089588EC93E00E94550721E0892B09F4EE
:100ED00020E0822F089580E090E0892B29F00E9485
:100EE000610781110C9400000895FC01A48DA80FE6
:100EF000B92FB11DA35ABF4F2C91848D90E001965C
:100F00008F739927848FA689B7892C93A089B1897B
:100F10008C91837080648C93938D848D981306C01C
:100F20000288F389E02D80818F7D80830895EF9280
:100F3000FF920F931F93CF93DF93EC0181E0888F93
:100F40009B8D8C8D98131AC0E889F989808185FF63
:100F500015C09FB7F894EE89FF896083E889F98905
:100F600080818370806480839FBF81E090E0DF9107
:100F7000CF911F910F91FF90EF900895F62E0B8D5A
:100F800010E00F5F1F4F0F731127E02E8C8D8E1115
:100F90000CC00FB607FCFACFE889F989808185FF7C
:100FA000F5CFCE010E947507F1CFEB8DEC0FFD2F31
:100FB000F11DE35AFF4FF0829FB7F8940B8FEA8937
:100FC000FB8980818062CFCFCF93DF93009759F068
:100FD000EC01FE0164912196662329F088EC93E0F0
:100FE0000E949707F6CFDF91CF910895CF93DF93BB
:100FF000EC01888D8823B9F0AA89BB89E889F98931
:101000008C9185FD03C0808186FD0DC00FB607FC65
:10101000F7CF8C9185FFF2CF808185FFEDCFCE0198
:101020000E947507E9CFDF91CF910895CF92DF92AB
:10103000EF92FF920F931F93CF93DF938091210341
:101040000E94DD05EC010E94BD060091160310917F
:10105000170320911803309119036B017C01C01A0A
:10106000D10AE20AF30A970186010B3F1105210517
:10107000310520F0109215031092140360931603AB
:1010800070931703809318039093190380911503AD
:101090009FEF980F983050F4DD2701C0CC0F9A9540
:1010A000EAF790911403C92BC09314038F5F8093C8
:1010B00015038B30B9F4809120038F5F8D3208F0D7
:1010C00080E090911F03981749F0E82FF0E090918D
:1010D0001403E951FD4F9083809320031092150370
:1010E00010921403DF91CF911F910F91FF90EF9019
:1010F000DF90CF9008950F931F93CF93DF93FC0160
:101100008B01EA0180819181892B31F192819923B0
:1011100049F128813981232BF9F0D8012D913C9197
:10112000D9014C918381682F691B770B8081918154
:10113000860F971FDC014C938281815082838881C6
:101140009981019799838883D8018D919C911197FA
:1011500001968D939C93DACF80E0DF91CF911F9120
:101160000F9108958381828381E0F7CF2F923F9280
:101170004F925F926F927F928F929F92AF92BF92A7
:10118000CF92DF92EF92FF920F931F93CF93DF9353
:1011900000D000D01F92CDB7DEB7D80112962C91A7
:1011A0001297213009F484C02B019D838C83FC01AC
:1011B00062814C91641739F00190F081E02D048038
:1011C000F581E02D09953801B2E06B0E711C8C8021
:1011D0009D80E4E08E0E911C6801C80108969B83F7
:1011E0008A83540173012C803D809AE0290E311CC2
:1011F000D7014D917D01F50191915F01D301F4017A
:10120000198280E02191421303C0413009F081E04E
:101210002D91291304C0913011F021E02983E215AA
:10122000F30581F781111AC0AC81BD81ED91FC916C
:1012300011970280F381E02DB201CD010995AC81B7
:10124000BD81ED91FC910680F781E02DD7011197CA
:101250004C91D8016C918C819D810995B981B11116
:1012600011C0AC81BD81ED91FC910084F185E02D30
:10127000D50111974C91AC81BD8112966C9112975A
:10128000CD010995EA81FB81EE16FF0609F0B0CF8A
:101290008C819D8102969B838A83D6018D916D01FD
:1012A000EA81FB818193FB83EA83AE15BF05A9F731
:1012B0000F900F900F900F900F90DF91CF911F9193
:1012C0000F91FF90EF90DF90CF90BF90AF909F90E5
:1012D0008F907F906F905F904F903F902F900895E8
:1012E000DF92EF92FF920F931F93CF93DF93EC0166
:1012F00085E0E62EF12CFE01869FE00DF11D112404
:10130000908596FF24C0192F177001E085E0D82E34
:101310008FEF800F8F3008F001E0602F70E0062F14
:10132000D69EF001D79EF00D1124EC0FFD1F808595
:101330008695869586958770181701F16F5F7F4FA8
:10134000603168F38D81811302C011501D8385E0E7
:101350008E9DF0018F9DF00D1124EC0FFD1F108666
:1013600081E0818712862296D783C683DF91CF9151
:101370001F910F91FF90EF90DF900895CE010E9492
:101380007009C6CFFC0120812EBD9B01215031097F
:1013900041F051810DB407FEFDCF4EB55EBD4193C6
:1013A000F5CF61507109860F971F0DB407FEFDCF71
:1013B0002EB5FC0120830895FC0121E0613499F4ED
:1013C0009C01255B3F4F61E0AC014E5F5F4F15868E
:1013D000668717865487438735962E173F07B9F7D8
:1013E000FC01158208953585631729F02F5F359626
:1013F0002031C9F70895622F0C947009CF93DF93C1
:10140000FC0167FD12C0283080F4442319F0858167
:10141000873059F0EF01A1E0B0E08D85882349F1D4
:1014200011962596A031B105C1F780E018C085E07E
:101430008A9FE0018B9FD00D1124CE0FDF1F442324
:1014400089F081E4888785818F5F858325E02A9FE5
:10145000C0012B9F900D1124E80FF91F8085DF91AB
:10146000CF91089581E08887F1CF2770687B622B48
:101470000FC06623E1F26770660F660F660F4423A4
:10148000A1F3606485818F5F85838770687F682B97
:1014900025E02A9FC0012B9F900D1124E80FF91F12
:1014A0006087862FDCCFFC0121E0611102C0069627
:1014B00008953585631739F02F5F35962031C9F7C8
:1014C00090E080E00895069635E0239F800D911D01
:1014D00011240895DC011A96ED91FC9130E020E092
:1014E0000994DC011696ED91FC9130E020E040E09B
:1014F00069E10994DC011696ED91FC9130E020E061
:1015000040E068E109949A01DC011696ED91FC91A6
:10151000462F67E10994EF92FF920F931F93CF93A9
:10152000DF931F92CDB7DEB77C018B01D8016C91A0
:10153000673129F150F46531A0F40F90DF91CF911C
:101540001F910F91FF90EF9008956A3118F16E3F4F
:10155000A1F7F8014181498369E2C7010E946A0A43
:101560000BC0F80141814983D7011696ED91FC919A
:1015700030E020E0C70109950E5F1F4FD7CFF8017B
:1015800081818983AE014F5F5F4F61E0C7010E9497
:10159000830AF2CF0F5F1F4FD7011696ED91FC9192
:1015A00030E020E040E0C7010995C0CF462FDC01C4
:1015B0001696ED91FC9130E020E066E10994462F0B
:1015C000DC011696ED91FC9130E020E065E1099494
:1015D000EF92FF920F931F93CF93DF93EC01042FB1
:1015E0007901693069F48CE991E0998388831C8AD8
:1015F00081E0DF91CF911F910F91FF90EF900895BF
:101600006D3009F475C038F46A3091F16B3009F42B
:1016100068C080E0EECF6E3009F47DC06F30C9F74E
:101620000E947A0AF7011381110F110F110F6C89B3
:10163000160F612F62956F706061CE010E94DF0A04
:10164000612F6F70CE010E94DF0AF7016481606B29
:10165000CE010E94DF0AF701408151816281660F4D
:10166000660F660FCE010E94830A0150A1F75DC08C
:10167000EA85FB8530E020E040E068E20995EE81F4
:10168000FF8130E020E040E064E1CE01099541E0D7
:101690006BE4CE010E946A0AE881F981448169E223
:1016A000CE010E946A0A40E06BE4CE010E946A0A01
:1016B000E881F981448169E2CE010E946A0A41E031
:1016C0006BE4CE010E946A0AE881F981458169E2F2
:1016D000CE010E946A0A67E671E0CE010E948B0A81
:1016E00087CF62E671E04423C1F36DE571E0F5CF89
:1016F000411109C066E571E00E948B0AE881F98119
:1017000082898C8B75CF6FE471E00E948B0AE8812F
:10171000F9818389F6CF0E947A0A61E8CE010E949E
:10172000DF0A602FCE010E94D60ACE010E94710A04
:101730005FCFDC011896ED91FC9130E020E040E0B5
:1017400069E10994DC011896ED91FC9130E020E00C
:1017500040E068E10994CF93DF931F92CDB7DEB7E5
:101760006983BE016F5F7F4F0E94AC050F90DF91D0
:10177000CF910895EF92FF921F93CF93DF93EC01E7
:10178000162F7A010E94A20B60E4CE010E94AB0BDF
:10179000E885F9859701412F67E1CE010995CE01D2
:1017A000DF91CF911F91FF90EF900C94990BEF92E6
:1017B000FF921F93CF93DF93EC01142F79016631D1
:1017C00081F138F4643109F44BC0653179F080E07F
:1017D00022C06831C9F150F16931C9F78091E60240
:1017E000882391F1CE010E94990B2EC08091E602D0
:1017F000882319F0CE010E94990BCE010E94A20B02
:1018000060E0CE010E94AB0B612FCE010E94AB0BBA
:1018100081E08093E602DF91CF911F91FF90EF90DE
:101820000895642F0E94AB0B81E0F5CF8091E60212
:10183000882319F0CE010E94990BA701193138F4C1
:10184000612FCE010E94BA0B1092E602EDCF68E143
:10185000CE010E94BA0B185188E1E80EF11CEDCFC1
:101860008E898F3F11F488E78E8BE885F985970183
:10187000412F64E1CE01DF91CF911F91FF90EF9056
:1018800009940F93FC01E85BFF4F0190F081E02D7C
:10189000DF01A41BB50BAD01FC01EA5BFF4F01901A
:1018A000F081E02DDF01A61BB70BBD01011113C0B4
:1018B00041505109621B730BFC01E05CFF4F01902A
:1018C000F081E02D4E1B5F0BDC01D496ED91FC9175
:1018D00009950F910895013079F761507109421B04
:1018E000530BEACFCF93DF93FC01A081B18182AD8E
:1018F00090E09C0143E0220F331F4A95E1F737AF98
:1019000026AF50962C91509748E0249F90011124C7
:1019100035AF24AF23AD30E0B90153E0660F771F38
:101920005A95E1F7EF01C05CDF4F798368835196E8
:101930004C915197E901C80FD91F50E04C175D0732
:1019400018F4CA01821B930BEF01CE5BDF4F798342
:101950006883229623E0880F991F2A95E1F7860F66
:10196000971F99838883229654968D919C915597C1
:1019700099838883E85BFF4F56968D919C91918364
:101980008083DF91CF9108950F931F93FC01E25B59
:10199000FF4F0190F081E02DDC01A05BBF4F0D9067
:1019A000BC91A02D4A175B0740F4E017F10748F0FF
:1019B0000417150730F080E019C0E017F107C0F3F5
:1019C000FACFFC01E65BFF4F40815181845B9F4F62
:1019D000FC01808191816817790758F481E04217F2
:1019E000530720F081E02617370728F71F910F9142
:1019F000089542175307B0F3DECF2F923F924F92D4
:101A00005F926F927F928F929F92AF92BF92CF928E
:101A1000DF92EF92FF920F931F93CF93DF93CDB797
:101A2000DEB728970FB6F894DEBF0FBECDBF9887FC
:101A30008F83865B9F4F9A838983FC01118210827A
:101A4000EF81F885EA5BFF4F208031802F81388558
:101A5000245B3F4F3C832B83F90131822082EF804E
:101A6000F884FEE4EF0EF11CF70111821082EF8181
:101A7000F885E85BFF4F40805180EF81F885EC5B93
:101A8000FF4F208131814216530630F0C201821B84
:101A9000930BF70191838083EF81F885EE5BFF4F15
:101AA00020813181421A530A2F813885205B3F4FB4
:101AB0003E832D83F90151824082EF81F885E85AF7
:101AC000FF4F60807180EF81F885EC5AFF4FA08056
:101AD000B180EF81F885EA5AFF4FC080D180EF8155
:101AE000F885EE5AFF4F8080918083019501A60111
:101AF000B4018F8198850E94C40C2F8138852C57A2
:101B00003F4F38872F8381111BC0F901108228961F
:101B10000FB6F894DEBF0FBECDBFDF91CF911F91FE
:101B20000F91FF90EF90DF90CF90BF90AF909F907C
:101B30008F907F906F905F904F903F902F9008957F
:101B400081E0EF81F88580838114910421F0E9819F
:101B5000FA8191828082A214B30420F4EB81FC818B
:101B6000B182A082F701808191818C159D0510F4CE
:101B7000D182C0826414750450F6ED81FE817182B9
:101B80006082C5CF0F93CF93DF93E02FDC01AC577A
:101B9000BF4FFC91FF2309F460C02115310509F402
:101BA0005CC02230310538F0023009F04AC06F5F66
:101BB0007F4F621B730B0E2F0170E0FD52C0FC01C2
:101BC000E25BFF4F0190F081E02D4E175F0708F4B4
:101BD00044C0FC01E05BFF4F0190F081E02D4E1707
:101BE0005F07D8F5FC01E45BFF4F0190F081E02D29
:101BF000DC01A65BBF4F0D90BC91A02D260F371FB7
:101C00002617370738F56E177F0718F59F01215003
:101C10003109A217B30708F56A177B0708F4BD015D
:101C20002E173F0708F4F901E61BF70BEC01AEA9EC
:101C3000BFA914960D90BC91A02D9F01FD0109959F
:101C40000CC0033009F0B7CF4F5F5F4F421B530BFF
:101C5000B2CFBD016E177F07E0F2DF91CF910F91F8
:101C60000895FC01E65BFF4F0190F081E02D6E17B7
:101C70007F0798F3FC01E45BFF4F0190F081E02DBA
:101C80006E177F0750F7FC01E05BFF4F0190F0817A
:101C9000E02DDC01A25BBF4F0D90BC91A02D240F65
:101CA000351F24173507A8F44E175F0788F49F01E6
:101CB00021503109A217B30780F64A175B0708F4D1
:101CC000AD012E173F0708F4F901E41BF50BAECF69
:101CD000AD014E175F0708F6EDCFAF92BF92CF92DE
:101CE000DF92EF92FF920F931F93CF93DF936C01DC
:101CF000EB015A017B01E20EF31E9C01240F351FFC
:101D00008701AB01BC0181EB95E00E94C40C8111FD
:101D100014C0DF91CF911F910F91FF90EF90DF9052
:101D2000CF90BF90AF90089500E09501AE01B6014D
:101D300081EB95E00E94C20D2196EC16FD06A1F7FD
:101D4000E8CF8F929F92AF92BF92CF92DF92EF92A5
:101D5000FF920F931F93CF93DF936C01EB014A0126
:101D600079015C01A40EB51E8B01020F131F9501B2
:101D7000AB01BC0181EB95E00E94C40C882371F19A
:101D800000E09401AE01B60181EB95E00E94C20D26
:101D900082E0E816F10410F182E0E81AF1082196D9
:101DA000E114F10499F001E09701AE01B60181EB75
:101DB00095E00E94C20DB501615071099701AE0115
:101DC00081EB95E00E94C20DCE0DDF1D00E0940175
:101DD000AE01B60181EB95E00E94C20DDF91CF917B
:101DE0001F910F91FF90EF90DF90CF90BF90AF9039
:101DF0009F908F900895213069F038F0223079F06B
:101E0000840F911D47FD9A950895860F911D67FDDA
:101E10009A950895841B910947FD93950895861B13
:101E2000910967FD93950895213069F038F02230CB
:101E300079F0861B910967FD93950895840F911D94
:101E400047FD9A950895860F911D67FD9A9508950F
:101E5000841B910947FD939508953F924F925F929D
:101E60006F927F928F929F92AF92BF92CF92DF92AA
:101E7000EF92FF920F931F93CF93DF937C01162F66
:101E8000442EEC01C25ADF4F5E806F806C018AE8FD
:101E9000C80ED11C78847518312E711608F4372CB1
:101EA0008C809D800E85202F462D652D8A819B81FB
:101EB0000E94FB0E5C01202F462D652DC4010E945F
:101EC000140FAC01442079F08C85F6018083232D1A
:101ED00030E0B501C7010E94C20D171548F017196F
:101EE0006394512CD7CF8B858111F7CF8D85EDCFA2
:101EF000150D1E836F82DF91CF911F910F91FF907F
:101F0000EF90DF90CF90BF90AF909F908F907F9099
:101F10006F905F904F903F900895DC011A964C911E
:101F20001A97ED91FC911197249130E0042E02C094
:101F3000359527950A94E2F7842F860F883068F04C
:101F400031961196FC93EE93E49198E0941B01C0B6
:101F5000EE0F9A95EAF72E2B88501A968C938FEFF6
:101F60009FEF01C0880F6A95EAF780958223089554
:101F7000FC01E60FF11D849190E0982F882731969F
:101F8000E4918E0F911D08954F925F926F927F9210
:101F90008F929F92AF92BF92CF92DF92EF92FF9279
:101FA0000F931F93CF93DF93EC016B018A017901AB
:101FB000FC01E459FF4F8081813009F44BC008F4E3
:101FC0003EC0823009F451C0833009F459C0FE018B
:101FD000E05AFF4FD182C082329611830083389736
:101FE0008081918147962FEFE216F10411F008F0FD
:101FF000F2C0E1E6EE16F10408F44DC0FE01E0582F
:10200000FF4F20813181820F931F9C012F5F3F4F33
:10201000F9014491411148C090E080E0DF91CF91F7
:102020001F910F91FF90EF90DF90CF90BF90AF90F6
:102030009F908F907F906F905F904F900895FE01DA
:10204000E45AFF4F0190F081E02DCE010995080F71
:10205000191FBDCFFE01E45AFF4F0190F081E02D22
:10206000CE010995C81AD90AB2CFFE01E45AFF4F32
:102070000190F081E02DCE010995081B190BA7CF27
:10208000FE01E45AFF4F0190F081E02DCE01099549
:10209000C80ED91E9CCFF1E4EF16F10408F4B5CFB9
:1020A000FE01E258FF4FADCFFC0144914E151F04D5
:1020B00009F08CC00296009709F4AECF7E01FEE5D0
:1020C000EF0EF11CF7019183808312867396608175
:1020D000C7010E948D0FF701808774966081C70148
:1020E0000E948D0F982EF70181875E01FAE8AF0EEE
:1020F000B11CF5019081F701948781E0911180E096
:10210000F7018587FE01ED58FF4FC0806C2DC70198
:102110000E948D0F582EFE01EC58FF4FD0806D2D80
:10212000C7010E948D0F482EFE01EB58FF4F108112
:10213000612FC7010E948D0F9FEF910F01E010E00A
:10214000980101C0220F9A95EAF7882E821AF701AA
:10215000608416140CF0ADC0CA94C80101C0880F89
:10216000CA94EAF7581A7684490CDA94A80101C097
:10217000440FDA94EAF7F42FF4194F2E272D4F2F3E
:10218000652DF701828193810E94FB0E6C01F7019E
:1021900093838283272D442D652D848195810E9410
:1021A000140FF70195838483F1E07F1609F485C04D
:1021B0007F1608F43FC022E0721609F48DC0E3E0F8
:1021C0007E1609F49DC0BC0196013EC0F901249120
:1021D000820F911D1ACFFE01EE57FF4F0081118132
:1021E000080F191F680160E0C6010E94B80F080FB0
:1021F000191F62E0C6010E94B80FF4E0CF0ED11C97
:102200008E159F0580F3F801849190E0982F882720
:102210003196E4918E2B009709F4FECEE816F9066C
:1022200019F4C801039647CFF8013296E4910E0FD6
:10223000111DE9CF9601260D311D67FC3A95BC01B1
:10224000690D711D97FC7A958B01AC01B601CE0129
:102250000E94C40C882369F1F701168217828E014F
:1022600001591F4F6E01F0E7CF0ED11CF8016081BC
:10227000C7010E948D0F682EF6016081C7010E9480
:102280008D0F782E40E0662DCE010E942D0F41E08B
:10229000672DCE010E942D0F61E0C7010E948D0FB6
:1022A0008111F0CFF7018781891504F38485F50149
:1022B0008083882D880C990BB1CE0919110997FCE0
:1022C000139596012F5F3F4FBC01660D711D67FC92
:1022D0007A95C00ED11EB8CFA8014619510967FCE6
:1022E000539596012F5F3F4F0919110997FC1395DC
:1022F000BC016F5F7F4F800F911FC40ED51EA4CF0E
:102300009601290D311D97FC3A950619110967FCB4
:102310001395BC016F5F7F4F800F911F95CF9A017E
:10232000AB01BC0181EB95E00C94C40FCF92DF921E
:10233000EF92FF920F931F93CF93DF93EC018B01EA
:102340001092C9058EEBC82E83E0D82EF12CE12C1B
:10235000F60161916F01E091B305F091B40581EB55
:1023600095E009958F3F980719F18E3F2FEF92075F
:1023700079F39C01A801BE0181EB95E00E94C40F96
:1023800020911D06213059F038F0223059F02330C9
:1023900061F0E80EF91EDCCFC80FD91FFACF080F85
:1023A000191FF7CFC81BD90BF4CF081B190BF1CF9E
:1023B000C701DF91CF911F910F91FF90EF90DF90B8
:1023C000CF900895CF93DF93EC016BAFEEA9FFA9F7
:1023D0000190F081E02D0995EEA9FFA90280F3811B
:1023E000E02DCE01DF91CF910994AF92BF92CF92B1
:1023F000DF92EF92FF920F931F93CF93DF9300D062
:1024000000D01F92CDB7DEB78C01DC01DA96AC901C
:10241000DA97DB96EC90DB97ED91FC91B188FE2C7E
:10242000D12CC12CD801ED91FC9111978089D896BF
:102430002D913C911C82FD828B83B8E08B9FC00163
:1024400011248C9DA0018D9D500D9C9D500D11243B
:10245000240F351F3A832983D8011496ED91FC91FE
:102460009E012F5F3F4F41E06FE0C8010995F39453
:102470008F2D8E198A1528F4BFEFCB1ADB0AFB14B7
:1024800088F20F900F900F900F900F90DF91CF91E7
:102490001F910F91FF90EF90DF90CF90BF90AF9082
:1024A00008950F931F93CF93DF938C01C62F642F52
:1024B000CC32E8F4CA3208F041C0C83271F1C932F6
:1024C00009F442C080E0C034D0F1CF73F801EC0FC2
:1024D000F11D868D8F3F91F1C031E0F00E94DD0546
:1024E00021E0892B09F420E0F801218F27C0CD32AB
:1024F00089F140F384EB8C0F823020F7CF73C00F4B
:10250000D12FD11D8E8D411133C061E00E94340660
:1025100060E08E8D0E94060611C0025E1F4FD0E063
:10252000F80181918F018F3F31F061E0D03108F0E7
:1025300062E00E943406DF5FD63191F781E0DF91DF
:10254000CF911F910F91089570E090E080E00E947C
:102550008A06F4CF85E090E0433010F082E090E00E
:10256000880F991F880F991F05970197F1F7E6CFFC
:1025700062E00E943406E2CF2091C302260F332787
:10258000331F21323105ECF42091B303FC0190E0BC
:1025900080E0243069F082E00895A091C302219187
:1025A000AC014D555D4FA40FB52FB11D2C93019675
:1025B000861798F38091C302680F6093C30280E08E
:1025C000089581E008951092B30381E0809392030F
:1025D00010928D0361E082E10E94060661E083E1D2
:1025E0000E940606E9EBF0E080818E7F8083808187
:1025F0008D7F808388E48093B80085E48093BC005D
:102600000895CF93DF9391E09093A2028823B9F0CD
:10261000C091B800D091BA008091BC008A7B8093B1
:10262000BC0060E082E10E94060660E083E10E9457
:1026300006060E94E312D093BA00C093B800DF915F
:10264000CF910895CF92DF92EF92FF920F931F9355
:10265000CF93DF93D82FC62F613208F098C00E9425
:1026600065066B017C018091B30381116BC081E031
:102670008093B303809392039FEF90939103109202
:1026800090039C0F90938F0380938E0380918E0311
:10269000DD0FD82BD0938E0380918D03813009F00C
:1026A00078C010928D030E9465066B017C018091B9
:1026B0008E038093BB008091B5039091B603A091E7
:1026C000B703B091B803892B8A2B8B2BA1F00E9402
:1026D00065060091B5031091B6032091B7033091C0
:1026E000B8036C197D098E099F090617170728077B
:1026F000390708F448C08091BC0083FDD8CF85EC31
:102700008093BC000E9465066B017C018091B3033D
:10271000813009F440C0809190038C1710F4C0916F
:102720009003EDE6F3E0A3E9B3E080E08C1355C03D
:102730008C2FDF91CF911F910F91FF90EF90DF9041
:10274000CF9008958091B5039091B603A091B703FF
:10275000B091B803892B8A2B8B2B09F484CF0E946C
:1027600065060091B5031091B6032091B70330912F
:10277000B8036C197D098E099F09061717072807EA
:10278000390708F070CF8091B4030E940113C0E0B4
:10279000CFCF85EEB5CF8091B5039091B603A091D0
:1027A000B703B091B803892B8A2B8B2B09F4AECFDA
:1027B0000E9465060091B5031091B6032091B703FE
:1027C0003091B8036C197D098E099F090617170708
:1027D0002807390708F09ACFD6CF91919D938F5F44
:1027E000A5CFCF92DF92EF92FF920F931F93CF93DB
:1027F000DF93D0916C0381E0D13208F09CC0C0918E
:102800006B030E9465066B017C018091B30381110B
:102810006CC082E08093B30381E0809392038FEFDA
:102820008093910310929003D0938F03ABE4B3E0B5
:10283000EDE6F3E080E0D8138DC010928E03809116
:102840008E03CC0FC82BC0938E0380918D038130F3
:1028500009F084C010928D030E9465066B017C0113
:1028600080918E038093BB008091B5039091B60355
:10287000A091B703B091B803892B8A2B8B2BA1F0C1
:102880000E9465060091B5031091B6032091B7032D
:102890003091B8036C197D098E099F090617170737
:1028A0002807390708F442C08091BC0083FDD8CFC7
:1028B00085EC8093BC000E9465066B017C018091D1
:1028C000B303823009F44CC0809191038F3F09F427
:1028D00069C080919103803209F466C080919103B0
:1028E000803309F463C084E026C08091B5039091E1
:1028F000B603A091B703B091B803892B8A2B8B2B19
:1029000009F483CF0E9465060091B5031091B603C8
:102910002091B7033091B8036C197D098E099F0986
:10292000061717072807390708F06FCF8091B403FF
:102930000E94011385E010924A0310926C031092DA
:102940004903DF91CF911F910F91FF90EF90DF909E
:10295000CF9008959D9191938F5F6DCF85EEA9CF14
:102960008091B5039091B603A091B703B091B803DD
:10297000892B8A2B8B2B09F4A2CF0E94650600912C
:10298000B5031091B6032091B7033091B8036C19C9
:102990007D098E099F09061717072807390708F0D0
:1029A0008ECFC4CF80E0C7CF82E0C5CF83E0C3CF56
:1029B0000895E091230380912403E81730F4F0E0B8
:1029C000ED56FC4F808190E008958FEF9FEF0895C2
:1029D00090912303809124032FEF3FEF981748F441
:1029E000E92FF0E0ED56FC4F208130E09F5F90939F
:1029F0002303C9010895CF92DF92EF92FF920F93C4
:102A00001F93CF93DF937C01CB018A01209149036F
:102A1000222389F0EB016B01C40ED51ECC15DD0518
:102A200069F06991D701ED91FC910190F081E02D61
:102A3000C7010995F3CF642F0E94BC12C801DF9132
:102A4000CF911F910F91FF90EF90DF90CF9008955D
:102A5000CF93DF93EC01962F683109F445C0B9019B
:102A6000993130F4943199F0973159F080E006C0F3
:102A7000993109F45BC09032C9F781E0DF91CF91C1
:102A8000089550E085E694E00E94FB14F6CF8C8513
:102A90009D85AE85BF85892B8A2B8B2B71F4E881B0
:102AA000F981A585B0E020EA36E841E050E00E94D7
:102AB00021386C877D878E879F8710922303109221
:102AC000240310924A0310926C030E94E31280EDDB
:102AD00096E090931B0380931A0381ED96E0909308
:102AE0001D0380931C03C9CF2C853D854E855F85D2
:102AF00060E074E284EF90E00E9447382051310991
:102B00004109510956954795379527952093B80067
:102B10008E8990E09595879591E0909349038093F5
:102B20006B0310924A0310926C03A7CF0E94F1131B
:102B3000A4CFCF93DF931F92CDB7DEB769832091E7
:102B400049032223F9F020916C03203258F021E050
:102B500030E0FC013383228390E080E00F90DF912E
:102B6000CF91089580914A03E82FF0E0E55BFC4F98
:102B7000998190838F5F80934A0380936C0381E0F7
:102B800090E0ECCF61E0CE0101960E94BC12F7CF3D
:102B90000895EF92FF92CF93DF93FC01E7018789BD
:102BA000833021F1648B458B9B8193709330F1F4DA
:102BB0009A8197FF1BC02E81358D321708F4258F1F
:102BC000282F30E0D901AA0FBB1FA20FB31FAE0FF1
:102BD000BF1F9F7017969C9317979C8118969C9384
:102BE000189794E019969C938F5F878BDF91CF9114
:102BF000FF90EF900895EF92FF920F9302970E943B
:102C0000C9150F91FF90EF900895FC01848D0895F0
:102C100070E0685F7F4F660F771F860F971FFC017C
:102C20005183408381E0089570E0685F7F4F660FB5
:102C3000771F860F971FFC0180819181089581E0A5
:102C4000633009F080E00895FC0186810895CF93F8
:102C5000DF93EC018C819D81DC01ED91FC9104807E
:102C6000F581E02D6E8109951C8A1D8A81E08F8B8C
:102C70001E82188E198E1A8E1B8E1C8E80E0DF919C
:102C8000CF910895EF92FF92CF93DF93FC01E7017C
:102C90008289823021F16787408B9B8193709330CA
:102CA000F1F49A8197FF1BC02E81308D321708F402
:102CB000208F282F30E0D901AA0FBB1FA20FB31F0E
:102CC000AE0FBF1F9F7017969C9317979C81189605
:102CD0009C93189794E019969C938F5F828BDF9159
:102CE000CF91FF90EF900895EF92FF920F9302978C
:102CF0000E9442160F91FF90EF900895FC01878982
:102D0000089570E0660F771F860F971FFC01858579
:102D10009685089581E0613009F080E00895FC0116
:102D200086810895CF93DF93EC018C819D81DC0136
:102D3000ED91FC910480F581E02D6E8109951F864F
:102D4000188A81E08A8B1E821B8A1C8A1D8A1E8A31
:102D50001F8A80E0DF91CF9108952A9808952A9ADA
:102D6000089570E0660F771F860F971FFC01568746
:102D7000458781E00895417181E009F480E09091F8
:102D80009A02981749F080939A0280910A0144238D
:102D900021F08E7F80930A0108958160FBCF8F73AD
:102DA00065E00E943B38292FE82FF0E0E65FFE4FF8
:102DB00081E090E0A0E0B0E004C0880F991FAA1F56
:102DC000BB1F2A95D2F72081822B808308958F73B1
:102DD00065E00E943B38E82FF0E0E65FFE4F41E0FF
:102DE00050E060E070E004C0440F551F661F771F7D
:102DF0009A95D2F74095808148234083089530E02A
:102E000020E0F901E657FE4FE491E81308C0E09195
:102E10000601F0910701E20FF31F849108952F5FDF
:102E20003F4F2C30310569F788E2089530E020E00B
:102E3000F901E258FE4FE491E81308C0E091060161
:102E4000F0910701E20FF31F849108952F5F3F4F28
:102E50002C30310569F788E2089530E020E0F9016F
:102E6000EE5AFE4FE491E81308C0E0910401F0919E
:102E70000501E20FF31F849108952F5F3F4F263124
:102E8000310569F788E20895ECE3F1E09F012C53E6
:102E900031409491981305C0F901EA5DFE4F849189
:102EA000089531969F3F91F788E20895CF93DF937D
:102EB00080911F03909120038917C1F08F5F8D329D
:102EC00008F080E0E82FF0E0E951FD4FC0818093E9
:102ED0001F03CC2359F080912203823009F4CFC024
:102EE00040F4882381F0813009F47EC0DF91CF91D6
:102EF0000895843009F438C108F4FDC08530B1F775
:102F000010922203F3CF81E0C03F09F42EC182E08A
:102F1000C03E09F42AC184E0C13E09F426C1C93586
:102F200011F0C23121F481E080939B02DFCFC930E0
:102F300009F040C081E08093250380919B028823A3
:102F400009F445C08C2F0E942D17E82FE6FB22279D
:102F500020F98E2F8F7365E00E943B38392F2111A5
:102F60000DC0EE2359F0EE3149F0E43239F091E032
:102F7000909327038093090130930801E82FF0E034
:102F8000E65FFE4F81E090E0A0E0B0E004C0880F73
:102F9000991FAA1FBB1F3A95D2F78095908189236C
:102FA0008083222309F4A2CF80910A018E7F80932F
:102FB0000A019CCFCA3521F481E080939D02BDCFE8
:102FC000C63709F0BACF81E080939C02B6CF8C2F30
:102FD0000E941617E82F883209F0B8CFEC2FF0E0E6
:102FE000E256FE4FE491B2CFC93511F0C23119F467
:102FF00010929B0285CFC93061F510922503809114
:103000009B02882381F18C2F0E942D17E82F8E2F91
:103010008F731092270365E00E943B38292F90E0C0
:10302000EC01C65FDE4F81E090E0A0E0B0E004C0BC
:10303000880F991FAA1FBB1F2A95D2F72881822BC0
:103040008883E6FF5DCF80910A01816080930A0149
:1030500057CFCA3519F410929D02D1CFC63779F6F1
:1030600010929C02CCCF8C2F0E941617E82F88322A
:1030700071F6EC2FF0E0E256FE4FE491C8CF83E00A
:10308000C03F09F472C0C53721F581E08093A002EA
:103090008C2F0E944417282F8F7365E00E943B38C5
:1030A000E82FF0E0E65FFE4F41E050E060E070E0C6
:1030B00004C0440F551F661F771F9A95D2F740959D
:1030C00080814823408380910A018E7F26FDBECFF8
:1030D00017CFC23721F481E08093A102D9CFCB363C
:1030E00021F481E080939F02D3CFC43789F681E039
:1030F00080939E02CDCFC93509F47ACFC23109F44D
:1031000077CFC53701F51092A0028C2F0E9444178B
:10311000282F8F7365E00E943B38392FE82FF0E0AD
:10312000E65FFE4F81E090E0A0E0B0E004C0880FD1
:10313000991FAA1FBB1F3A95D2F73081832B80833A
:1031400026FFDECE80CFC23719F41092A102DDCF68
:10315000CB3621F481E080939F02D7CFC437A9F604
:1031600081E080939E02D1CF85E080932203BECE82
:103170008F7325E0622F0E943B38392F289FC001B2
:103180001124855E9E4F830F911DFC01808108955F
:1031900090E09093400680933F0670E07093420663
:1031A00060934106BA018DEA95E00C94D30681E262
:1031B00091E0089585E191E0089589E091E0089516
:1031C0008FEF90E00895CF93DF93FC01DA018281C5
:1031D000882359F0813069F081E023813481232BE9
:1031E00009F080E0DF91CF9108953483238381E05B
:1031F0008283838194810097B1F02D913C91119746
:10320000232B51F3019794838383EB018881998168
:103210000196998388838D919C91119701971196BE
:103220009C938E93E6CF1282D7CF2F923F924F92EC
:103230005F926F927F928F929F92AF92BF92CF9246
:10324000DF92EF92FF920F931F93CF93DF9300D003
:1032500000D0CDB7DEB76C017A8369835C834B8382
:103260002C0182E1480E511C83E0282E5601A7E074
:10327000AA0EB11C12E0332433944601B0E18B0E48
:10328000911C3601EBE06E0E711C29813A812115EB
:10329000310509F4D4C0D60190968C918230F1F0BA
:1032A000B0F5882309F45AC0813089F7AE014F5F29
:1032B0005F4FBE016D5F7F4FC5010E947B08882371
:1032C00009F4BDC0D6011596ED91FC911697808149
:1032D00091968C939197818192968C93F601568268
:1032E000458220A2D60192968C919297843011F457
:1032F00093961C92F60181A18250848325813681A8
:10330000308727838287818784E080A305C083304C
:1033100049F3843009F0BBCFD60192968C9184306A
:1033200039F1853009F44FC0823009F079C0AE011F
:103330004F5F5F4FBE016D5F7F4FC5010E947B08ED
:10334000882309F47CC0F601858984A3D6011696EA
:103350009C928E92159790961C9297CFF6011483AB
:1033600085819681908787831287118730A29ECFAF
:10337000AE014F5F5F4FBE016D5F7F4FC5010E9481
:103380007B08882309F45BC0D60155968C9155972C
:103390008330E1F656968C9156978130B9F698961F
:1033A0009C91989757968C91992351F0882371F2AC
:1033B000F60133A2928996A3938997A385A3C6CFDA
:1033C000833021F6F5CFAE014F5F5F4FBE016D5FD9
:1033D0007F4FC5010E947B08882389F1D60193960F
:1033E0008C919397882309F4B1CF12968D919C917B
:1033F000009709F4ABCFDC01ED91FC910190F081D5
:10340000E02D7401D60195960C91959797962C9185
:10341000979796964C91969794966C91099596CF1E
:10342000F60121A12250330BAE014F5F5F4FBE0169
:103430006D5F7F4FC3010E94E318811187CF0F900A
:103440000F900F900F90DF91CF911F910F91FF90F0
:10345000EF90DF90CF90BF90AF909F908F907F9034
:103460006F905F904F903F902F9008952F923F92D2
:103470004F925F926F927F928F929F92AF92BF9284
:10348000CF92DF92EF92FF920F931F93CF93DF9330
:1034900000D000D0CDB7DEB76C017A8369835C833E
:1034A0004B832C0182E1480E511C83E0282E5601EB
:1034B000A7E0AA0EB11C12E0332433944601B0E118
:1034C0008B0E911C3601EBE06E0E711C29813A8146
:1034D0002115310509F4D4C0D60190968C91823023
:1034E000F1F0B0F5882309F45AC0813089F7AE01B4
:1034F0004F5F5F4FBE016D5F7F4FC5010E947B082C
:10350000882309F4BDC0D6011596ED91FC9116975C
:10351000808191968C939197818192968C93F601FC
:103520005682458220A2D60192968C919297843041
:1035300011F493961C92F60181A182508483258117
:103540003681308727838287818784E080A305C006
:10355000833049F3843009F0BBCFD60192968C9129
:10356000843039F1853009F44FC0823009F079C0D8
:10357000AE014F5F5F4FBE016D5F7F4FC5010E947F
:103580007B08882309F47CC0F601858984A3D601D1
:1035900016969C928E92159790961C9297CFF60154
:1035A000148385819681908787831287118730A243
:1035B0009ECFAE014F5F5F4FBE016D5F7F4FC50174
:1035C0000E947B08882309F45BC0D60155968C9134
:1035D00055978330E1F656968C9156978130B9F61F
:1035E00098969C91989757968C91992351F088239F
:1035F00071F2F60133A2928996A3938997A385A3CA
:10360000C6CF813021F6F5CFAE014F5F5F4FBE01CF
:103610006D5F7F4FC5010E947B08882389F1D60129
:1036200093968C919397882309F4B1CF12968D913C
:103630009C91009709F4ABCFDC01ED91FC910190D6
:10364000F081E02D7401D60195960C91959797968F
:103650002C91979796964C91969794966C91099584
:1036600096CFF60121A12250330BAE014F5F5F4F81
:10367000BE016D5F7F4FC3010E94E318811187CFA8
:103680000F900F900F900F90DF91CF911F910F919E
:10369000FF90EF90DF90CF90BF90AF909F908F9072
:1036A0007F906F905F904F903F902F90089580E0B3
:1036B0000895089580E0089508950F931F93CF9380
:1036C000DF93D82FC62F8A0180E591E00E94A605DE
:1036D0000E94AD16D260DEBDF8018C2F882339F030
:1036E0000DB407FEFDCF91919EBD8150F7CFC00F65
:1036F000D12FD11D0DB407FEFDCF0E94AF16CE0114
:10370000DF91CF911F910F9108950F931F93CF9346
:10371000DF9300D0CDB7DEB7182F062F80E591E0FC
:103720000E94A6050E94AD16126019830A8362E00A
:1037300070E0CE0101960E94C2090E94AF160F9060
:103740000F90DF91CF911F910F9108958EBD0000D2
:103750000DB407FEFDCF8EB50895CF93C82F80E539
:1037600091E00E94A6050E94AD168C2F0E94A61B18
:1037700080E00E94A61BC82F0E94AF168C2FCF910D
:1037800008958F929F92AF92BF92CF92DF92EF9265
:10379000FF920F931F93CF93DF93882E962E5A019B
:1037A0000E94BD066B017C0128E8C20E23E1D21EF7
:1037B000E11CF11C10E000E0D0E0C0E098280E947D
:1037C000BD066C197D098E099F0997FF1EC0692DE2
:1037D00080EF0E94851B0E94BD066C197D098E0931
:1037E0009F0997FF09C088EC0E94AD1B87FFF3CFAC
:1037F00060E888EC0E94851B88EF0E94AD1BC82FF3
:10380000CF70C43081F0CE30B9F08C2FDF91CF91E2
:103810001F910F91FF90EF90DF90CF90BF90AF90EE
:103820009F908F9008950F5F1F4FA114B10439F23C
:103830000A151B0521F6E9CFDF5FD33009F0BFCFB2
:10384000E4CFAF92BF92CF92DF92EF92FF920F93AD
:103850001F93CF93DF93EC01B62EA42E69010E9433
:10386000530A7C0186EDE114F10409F447C0D70145
:10387000ED91FC91119787ED309709F43FC01396B5
:103880009C9180E0981731F02081A21629F03396A0
:103890008F5FF8CFF0E0E0E0D601ED93FC938BED85
:1038A000309761F1228126952695203108F02FE08E
:1038B00081E090E0A0E0B0E004C0880F991FAA1F4B
:1038C000BB1F2A95D2F70197F801918380836B2D56
:1038D00080EE0E94851B88ED0E94AD1BD7011496D7
:1038E0009C91682F697F992329F0CA58DF4F68811E
:1038F0006260682B88ED0E94851B80E0DF91CF918C
:103900001F910F91FF90EF90DF90CF90BF90AF90FD
:10391000089588EF0E94AD1B807C8034B1F018F4CC
:10392000882301F10895803819F0803CC9F008958A
:1039300088ED0E94AD1B81FD0DC069EC88ED0E94F1
:10394000851B82E08093BD03089588ED0E94AD1B26
:1039500081FDF3CF6BEC88ED0E94851B83E0F2CFF5
:1039600081E0F0CF61ED88ED0E94851B1092BD03D0
:103970000895CF92DF92EF92FF920F931F93CF9310
:10398000DF936C01EB017B01E40EF51E10E000E01B
:10399000CE15DF0561F06991D601ED91FC910190A2
:1039A000F081E02DC6010995080F191FF1CFC8015C
:1039B000DF91CF911F910F91FF90EF90DF90CF900B
:1039C0000895CF92DF92EF92FF920F931F93CF93C0
:1039D000DF93EC016C0124E0C20ED11CFC01E05726
:1039E000FF4F0190F081E02DC60109958E3FEFEF6A
:1039F0009E07D8F48E010C561F4FF801408151816B
:103A00007E01F2E9EF0EF11CF701608171819C01EA
:103A1000C6010E94C40FC059DF4F28812130C1F078
:103A200078F02230B9F02330E9F081E090E0DF91C6
:103A3000CF911F910F91FF90EF90DF90CF9008955D
:103A4000F70120813181820F931F91838083EDCF15
:103A5000F801F7CFF70120813181281B390B318321
:103A60002083E3CFF801F7CF089590E080E0089538
:103A7000CF92DF92FF920F931F93CF93DF93F62E97
:103A800001E0C82FD0E0CC0FDD1FC457DA4F6E0124
:103A900088819981DC01ED91FC910280F381E02D18
:103AA0002F2D40E060E00995182F803E49F561E038
:103AB00088EE0E94851B66E670E080E090E00E9440
:103AC0008A06F60180819181DC01ED91FC910190E3
:103AD000F081E02D2F2D40E060E00995182F8D300A
:103AE00041F58FEF800F833088F061E088EE0E940F
:103AF000851B66E670E080E090E00E948A0610C0B8
:103B00008D3061F48FEF800F833050F464E670E005
:103B100080E090E00E948A060F5FBACF882389F286
:103B2000812FDF91CF911F910F91FF90DF90CF9068
:103B300008958823A9F3D9CF2F923F924F925F9295
:103B40006F927F928F929F92AF92BF92CF92DF92AD
:103B5000EF92FF920F931F93CF93DF937B013A0174
:103B60006901F901A080B180FB013180F901118266
:103B70001082FB01828160E181FD60E288EE0E949B
:103B8000851B2A2CA301F701608180E00E94C11BE4
:103B9000582EF6E08F1310C088EF0E94AD1BF7017E
:103BA00092819D7F84FF9260928360E191FD60E24B
:103BB00088EE0E94851BE6CF811150C088EC0E94E0
:103BC000AD1B82FF5FC080E30E94AD1B482E8A15AB
:103BD0001B0411F008F0422CF60180819181E5016F
:103BE000C81BD90BD7FF02C0D0E0C0E0842C912CB9
:103BF0008C169D060CF4E40180E591E00E94A60578
:103C00000E94AD1688E00E94A61BAE0170E060E045
:103C1000C8010E946F38209721F0BE01C8010E94A0
:103C2000C2090C0F1D1F0E94AF1664E088EC0E94B1
:103C3000851BF60180819181880E991E9182808278
:103C4000431420F08A149B0408F49CCF88EF0E9450
:103C5000AD1BF701928184FB91F99283852DDF9151
:103C6000CF911F910F91FF90EF90DF90CF90BF9079
:103C7000AF909F908F907F906F905F904F903F900C
:103C80002F90089580EF582EE9CF2F923F924F92B8
:103C90005F926F927F928F929F92AF92BF92CF92DC
:103CA000DF92EF92FF920F931F93CF93DF93CDB7E5
:103CB000DEB765970FB6F894DEBF0FBECDBF3C01EF
:103CC000342E222E402EED8AEAA4FBA4188A1F86E9
:103CD0001E861D868E01035F1F4F9E01215F3F4F91
:103CE00040E00E94211C582E811139C139822A825C
:103CF0004B822D892C83DE82CD82B886AF82AE01C5
:103D00004F5F5F4F68E080E20E945D1B4D855E85DE
:103D100060E080E10E94C11B81113FC1E114F10408
:103D200009F453C00F851889D80112968C91129707
:103D300037FE51C0826012968C93650144244394EF
:103D4000C114D10409F42EC19C868B864D855E85F5
:103D50006F85788987019E01255F3F4FC3010E94CF
:103D60009C1D582EB6E08B130EC088EF0E94AD1B31
:103D7000EF85F88985FB882780F98425928180FB6F
:103D800091F99283DDCF8111EAC0ECA5FDA53097B2
:103D9000A1F06B857C850190F081E02D0190F08190
:103DA000E02DC5018C199D099A8789879E01275F9F
:103DB0003F4FA7018CA59DA509958B859C85C81AA9
:103DC000D90A8815990508F0BBCF4D855E8537FE69
:103DD000E0C080EADFC0816012968C931297119642
:103DE0006C908FEF860D803408F0D9C02D843E840E
:103DF0000E94BD069B01AC0128573C4E4F4F5F4FC0
:103E0000298B3A8B4B8B5C8BD80112968C9160E896
:103E100080FF60E488EE0E94851B512C712C811478
:103E2000910409F48BC053018614970408F45401DB
:103E3000AD8AA7016A2D80E10E945D1B6A2D88E38F
:103E40000E94851BF8016081606280EF0E94851BE3
:103E500088EC0E94AD1B87FFFBCF60E888EC0E94D6
:103E6000851B88EF0E94AD1B8F70582E412CD12CE2
:103E7000C12C552021F10E94BD0629893A894B8920
:103E80005C89621B730B840B950B97FF18C036E09F
:103E9000531609F43FC04EE05416B1F054E05512E9
:103EA00009C08FEFC81AD80A2114310489F02C14E4
:103EB0003D0471F460E088E30E94851B41C08A18CC
:103EC0009B08EA0CFB1CABCF439493E0491691F39B
:103ED00060E088E30E94851BD7016C9180E10E941D
:103EE000851B6D8988E30E94851BF80160816062F3
:103EF00080EF0E94851B88EC0E94AD1B87FFFBCFE3
:103F000060E888EC0E94851B88EF0E94AD1B8F70D3
:103F1000582EAFCF88EF0E94AD1B85FB882780F914
:103F2000A1E08A27F801928180FB90F9928360E8F2
:103F300090FF60E488EE0E94851BCACF5110BACF73
:103F400088EF0E94AD1BD80112969C91129785FBB9
:103F500090F912969C934D855E855520D1F0852D64
:103F600065960FB6F894DEBF0FBECDBFDF91CF913F
:103F70001F910F91FF90EF90DF90CF90BF90AF9087
:103F80009F908F907F906F905F904F903F902F9079
:103F9000089580E860E00E94C11B582EE0CF8AEDB2
:103FA000582EDDCF4D855E85552009F412CFD7CF31
:103FB0008F929F92AF92BF92CF92DF92EF920F9328
:103FC0001F921F927F936F9388248394912CAA242D
:103FD000A394B12CD12CC12C42E0E42E00E029E0C6
:103FE00041E2FC016681848195810E94451E0F900B
:103FF0000F900F900F900F91EF90DF90CF90BF90A8
:10400000AF909F908F900895CF93DF931F92CDB77D
:10401000DEB7FC019285473421F1433551F0493335
:1040200079F491FB882780F9292F2D7F80FF22606A
:1040300006C0892F8170292F2E7F80FF2160228763
:1040400022852917B1F06115710599F0CB012983FB
:10405000BE016F5F7F4F0E94D81F0F90DF91CF91FD
:10406000089592FB882780F9292F2B7F80FF2460F9
:10407000E6CF80E0F2CF8F929F92AF92BF92CF9225
:10408000DF92EF920F93CF931F921F921F921F9276
:10409000912C812CB12CA12CD12CC12CE12C062FE0
:1040A00025E040E060E00E94451EC82F6CE271E010
:1040B00080E090E00E948A060F900F900F900F9082
:1040C0008C2FCF910F91EF90DF90CF90BF90AF905A
:1040D0009F908F9008958F929F92AF92BF92CF92B0
:1040E000DF92EF920F931F921F923F932F934A01FB
:1040F0005A01D12CC12CEE24E39400E026E040E8E4
:104100000E94451E0F900F900F900F900F91EF900F
:10411000DF90CF90BF90AF909F908F9008955F9267
:104120006F927F928F929F92AF92BF92CF92DF92C7
:10413000EF92FF920F931F93CF93DF93CDB7DEB72C
:1041400065970FB6F894DEBF0FBECDBF83B1182FB1
:10415000127081FD0CC088EC0E94AD1B85FF03C06E
:104160000E94891C10E2612F88EC0E94851B8091BF
:10417000BD03813041F058F0823009F461C08330D2
:1041800069F010E022C083E180937104FACF80913E
:104190007104807F8031A9F381E1F6CF11E0809135
:1041A0007104807F803189F40E94BD0668537F4F7F
:1041B0008F4F9F4F6093B9037093BA038093BB03F3
:1041C0009093BC0380E2809371049CE8E92E95E013
:1041D000F92E6701D6018D919D916D01009739F0FF
:1041E000DC01ED91FC910680F781E02D0995BCEA98
:1041F000CB16B5E0DB0671F780917104803409F4C9
:104200006BC000F5803209F451C0803309F45EC000
:104210008131B1F51092AC05F701819191917F0147
:10422000009739F0DC01ED91FC910480F581E02DDF
:104230000995CE14DF0481F782E18093710420C0D8
:1042400010E0ADCF813509F456C0803809F466C05E
:104250008035B1F488EC0E94AD1B86FF11C081E56A
:10426000809371040E94BD066C5E7F4F8F4F9F4FFD
:104270006093B9037093BA038093BB039093BC031C
:1042800065960FB6F894DEBF0FBECDBFDF91CF911C
:104290001F910F91FF90EF90DF90CF90BF90AF9064
:1042A0009F908F907F906F905F9008950E94BD06C1
:1042B0000091B9031091BA032091BB033091BC0364
:1042C000601B710B820B930B97FDDACF61E088EED8
:1042D0000E94851B80E4B1CF88EE0E94AD1B80FD5B
:1042E000CFCF88ED0E94AD1B682F686088ED0E94DB
:1042F000851B80E5A2CF0E94BD068090B9039090F7
:10430000BA03A090BB03B090BC03681979098A096D
:104310009B0997FDB5CF80E8809371041B8A88E0E4
:104320008C8B8CE38D8BC0903C05D0903D05CE01ED
:10433000439690933D0580933C05109340059E0164
:104340002F5F3F4F42E150E060E086E395E00E943E
:104350006B20082FD0923D05C0923C05811150C0C2
:10436000A984BA848B849C846D805E808CE8C82E7E
:1043700085E0D82E712CF60180819181009709F09B
:1043800041C07394F2E0CF0ED11C80E17812F3CFDC
:10439000F70180819181009709F076C00F5FF2E00C
:1043A000EF0EF11C0031A1F780913C0590913D0585
:1043B000892B09F459C01093400520E040E060E0EB
:1043C00086E395E00E94FE09F82E882309F44CC08C
:1043D000682F86E395E00E94530A009709F444C0D1
:1043E000FC0114836F2D86E395E00E943B20082F8B
:1043F000882309F484C06F2D86E395E00E94DC09D0
:10440000802F2FC0DC01ED91FC910084F185E02D1F
:1044100009958111B6CFF60180819181DC01ED9182
:10442000FC910088F189E02D652D0995882309F418
:10443000A8CFF60180819181DC01ED91FC9104848B
:10444000F585E02DA401B5010995882379F0612F48
:10445000872D0E94381D813D09F493CF882309F4EC
:104460004EC0823D09F40CCF80EAE7CEF601808190
:104470009181DC01ED91FC910684F785E02D662D9C
:1044800009958111E4CF7DCFDC01ED91FC91008491
:10449000F185E02D0995811181CFF701808191810E
:1044A000DC01ED91FC910088F189E02D652D0995E5
:1044B000811109C0612F802F0E94381D982F977F8E
:1044C000913D61F66BCFF70180819181DC01ED9127
:1044D000FC910484F585E02DA401B50109958111B5
:1044E0005DCFF70180819181DC01ED91FC91068423
:1044F000F785E02D662D09958823E1F24FCF80E9FD
:104500009CCE2F923F924F925F926F927F928F92AA
:104510009F92AF92BF92CF92DF92EF92FF920F9352
:104520001F93CF93DF93CDB7DEB7C054D1090FB639
:10453000F894DEBF0FBECDBF3C01162F322E232EC6
:104540001F921F92CE0101962C019F938F9399E0A9
:10455000892E912C29E0A22EB12CD12CC12C32E035
:10456000E32E042F26E040E8C3010E94451E0F9071
:104570000F900F900F90811113C0AB80BC802F92D1
:104580003F925F924F9280E4882E912C26E040E883
:10459000612FC3010E94451E0F900F900F900F9046
:1045A000C05CDF4F0FB6F894DEBF0FBECDBFDF910A
:1045B000CF911F910F91FF90EF90DF90CF90BF9020
:1045C000AF909F908F907F906F905F904F903F90B3
:1045D0002F9008952F923F924F925F926F927F9209
:1045E0008F929F92AF92BF92CF92DF92EF92FF9203
:1045F0000F931F93CF93DF93CDB7DEB7EC970FB632
:10460000F894DEBF0FBECDBFDC0116963C91311190
:1046100075C1E22E842E962E3C01FC01A480B5804B
:10462000158ED501ED91FC910190F081E02D60E0B7
:10463000C50109958C010097D1F486EDEC960FB673
:10464000F894DEBF0FBECDBFDF91CF911F910F91C8
:10465000FF90EF90DF90CF90BF90AF909F908F90A2
:104660007F906F905F904F903F902F900895FC0146
:104670004080518087ED4114510401F36301F7E05C
:10468000CF0ED11CD8011196DC92CE921496EC92EA
:104690009E01265D3F4F48E050E060E0F3018481D9
:1046A00095810E946B208CAF81112CC1FAA4D80196
:1046B0004D925C92D501ED91FC910280F381E02D49
:1046C000282D40E0692DC5010995F30186838823D3
:1046D00009F416C199A99087682F848195810E9459
:1046E0003B208CAFD501ED91FC91882379F0D80166
:1046F00014961C920480F581E02DD30116966C91DE
:10470000C5010995F30116828CAD98CFD301169699
:104710006C91D80114961C920190F081E02DC50196
:104720000995009709F489CFFC01E482FF2091F0FC
:104730004F2D433108F042E150E09E01265D3F4F8E
:10474000D30116966C91169714968D919C910E94A8
:104750006B208CAF1CAD111136C0FBAC8DE491E029
:104760009A838983C30102969C838B831D821A8658
:104770001B861E86188A1F8619A21AA21BA2CE01AA
:1047800041969F838E83998788879D878C8781E058
:1047900089A700E00F1589F09E012F5F3F4F402F42
:1047A000F3016681848195810E948122D30157960D
:1047B0008C91833011F00F5FEDCFF3010789033047
:1047C00059F081ED8CAFD301ED91FC910480F5811E
:1047D000E02DC301099598CF84819581F680C1149D
:1047E000D10409F46CC06F2D0E94530AFC01892B7F
:1047F00009F467C0F282D182C08203831CAF68EEE5
:1048000073E080E090E00E948A061F921F921F9240
:104810001F92912C812CB12CA12CD12CC12CE12CDC
:10482000F301048929E040E06681848195810E943A
:10483000451E8CAF0F900F900F900F908111C3CF3A
:1048400068EE73E080E090E00E948A06512C412CD3
:1048500041ED242E41E0342ED3015E964C91642D1F
:10486000C3010E94BF2F8CAF8111ADCF1F921F9249
:104870001F921F92912C812CB12CA12C6201E12C52
:1048800000E02AE041E2F3016681848195810E9483
:10489000451E8CAF3A822982AE014F5F5F4FB20155
:1048A000C3010E947D2F8CAF0F900F900F900F903F
:1048B0004A94452841F044244394512CCDCF18ED1F
:1048C0009DCF16ED9BCF80E28CAF8CAD882389F015
:1048D00090E0959587958CAFBE01645C7F4FC301D6
:1048E0000E94D81F69E170E080E090E00E948A0693
:1048F000ECCF91E0D3015C969C93A0CE89ED9ECE47
:1049000084ED9CCEF801518240825DCF4F925F9240
:104910006F927F928F929F92AF92BF92CF92DF92CF
:10492000EF92FF920F931F93CF93DF93CDB7DEB734
:10493000EC970FB6F894DEBF0FBECDBFDC01169624
:104940003C91311171C1E22E442E562E3C01FC01E6
:10495000A480B580108ED501ED91FC910190F0817D
:10496000E02D60E0C50109958C010097C1F486ED4A
:10497000EC960FB6F894DEBF0FBECDBFDF91CF919E
:104980001F910F91FF90EF90DF90CF90BF90AF906D
:104990009F908F907F906F905F904F900895FC0153
:1049A0008080918087ED8114910411F36301F7E019
:1049B000CF0ED11CD8011196DC92CE921496EC92B7
:1049C0009E01265D3F4F48E050E060E0F3018481A6
:1049D00095810E946B208CAF81112AC1FAA4D80165
:1049E0008D929C92D501ED91FC910280F381E02D96
:1049F000242D40E0652DC5010995F30186838823A8
:104A000009F414C199A99087682F848195810E9427
:104A10003B208CAFD501ED91FC91882379F0D80132
:104A200014961C920480F581E02DD30116966C91AA
:104A3000C5010995F30116828CAD9ACFD301169664
:104A40006C91D80114961C920190F081E02DC50163
:104A50000995009709F48BCFFC01E482FF2091F0C7
:104A60004F2D433108F042E150E09E01265D3F4F5B
:104A7000D30116966C91169714968D919C910E9475
:104A80006B208CAF1CAD11113EC05BAC00E037E475
:104A9000E32E31E0F32E4301B2E08B0E911C5E0158
:104AA000E1E1AE0EB11C051539F1FA82E9829C8272
:104AB0008B821D821A861B861E86188A1F8619A263
:104AC0001AA21BA219A6BF82AE82B986A886BD868D
:104AD000AC869E012F5F3F4F402FD30116966C91FD
:104AE000169714968D919C910E948122F3018289E0
:104AF000823011F00F5FD7CFD30152960C91023064
:104B000059F081ED8CAFD301ED91FC910480F581DA
:104B1000E02DC301099590CFF30184819581F68042
:104B2000C114D10409F478C06F2D0E94530AFC010E
:104B3000892B09F473C0F282D182C08203831CAF37
:104B400068EE73E080E090E00E948A061F921F9258
:104B50001F921F92912C812CB12CA12CD12CC12CF5
:104B6000E12CD3011F960C911F9729E040E0169687
:104B70006C91169714968D919C910E94451E8CAF56
:104B80000F900F900F900F908111BDCF68EE73E0E2
:104B900080E090E00E948A06F301418D60E0C3014D
:104BA0000E94BF2F8CAF8111AECF1F921F921F9218
:104BB0001F9200E02AE041E2D30116966C9116970D
:104BC00014968D919C910E94451E8CAF81ED91E0D1
:104BD0009A838983AE014F5F5F4F70E060E0C3014D
:104BE0000E947D2F80E28CAF0F900F900F900F905E
:104BF0008CAD8823A9F090E0959587958CAFBE0188
:104C0000645C7F4FC3010E94D81F69E170E080E0BF
:104C100090E00E948A06ECCF18ED91CF16ED8FCF71
:104C200091E0F301978BA4CE89EDA2CE84EDA0CEC6
:104C3000F8019182808267CFAF92BF92CF92DF92CC
:104C4000EF92FF920F931F93CF93DF9300D000D08A
:104C5000CDB7DEB77C01690158011C821B821A8224
:104C600019828E010F5F1F4F9E012D5F3F4F0E94E3
:104C7000211C811109C049815A816B817C81850188
:104C80009601C7010E949C1D0F900F900F900F90EE
:104C9000DF91CF911F910F91FF90EF90DF90CF9018
:104CA000BF90AF900895FC01A081B18150962C91E6
:104CB00082AD38E0839FC0011124289FA001299F65
:104CC000500D112470E060E080AD91AD0C946F3810
:104CD0001F93CF93DF93EC010E94F5111BAD8AADBA
:104CE000180FE881F9818189181768F0EC81FD813E
:104CF00030E020E040E060E1CE01099580E0DF9106
:104D0000CF911F910895FE01E557FF4F80818823C1
:104D100019F0CE010E945326612FCE010E94E211AC
:104D200081E0EDCFCF93DF93EC01FC01E557FF4F1E
:104D30008081882319F0CE010E94532660E0CE01C5
:104D4000DF91CF910C94E211FC0101900020E9F772
:104D50003197AF01481B590BBC0188EC93E00C94D0
:104D6000F7068F929F92AF92BF920F931F93CF93AC
:104D7000DF93CDB7DEB7A1970FB6F894DEBF0FBEB5
:104D8000CDBF19A2423008F44AE08E010F5D1F4FDB
:104D9000842E912CB12CA12CA50194010E9447389E
:104DA000E62FB901CA01EA30F4F4E05DD801EE93D0
:104DB0008D01232B242B252B79F790E080E0109791
:104DC00019F0CD010E94A426A1960FB6F894DEBF7B
:104DD0000FBECDBFDF91CF911F910F91BF90AF90CC
:104DE0009F908F900895E95CE1CF0F931F93CF932D
:104DF000DF9321E030E010E000E0000F111F0160C0
:104E00002F5F3F4F62177307C4F7082319236C7F86
:104E1000EB012497B8010C2E02C0759567950A9492
:104E2000E2F76F707727072E000C880B990B40E193
:104E30000E94B1262497CC3F8FEFD80759F7DF9116
:104E4000CF911F910F910895CF93DF93682F70E05A
:104E500090E080E04AE00E94B126EC0181E792E018
:104E60000E94A4268C0F9D1FDF91CF9108958FEF94
:104E700080931A0162E080E20E94221310922303C1
:104E800080932403811132C00E9456170E948F2004
:104E900080912703882341F0809109010E942427F3
:104EA000809108010E9424278091A102811126C0CF
:104EB0008091A002811126C080919F0281112AC099
:104EC00080919E02811122C080919D02811126C095
:104ED00080912703811122C080912503811122C076
:104EE00080919C0281111EC08FEF089585E694E0A9
:104EF0000E94E81480931A0181FD02C080E00895A9
:104F000080FD02C081E0089583FD02C085E0089520
:104F100082FD02C084E0089585FD02C082E008950C
:104F200086FDB2CF83E008950E9437278F3FE1F7D7
:104F30000895CF93DF93BC0188EC93E00E94D306E1
:104F4000EC0181E792E00E94A4268C0F9D1FDF9167
:104F5000CF910895AF92BF92CF92DF92EF92FF92DE
:104F60000F931F93CF93DF93A82EC8E6D1E0C12CF7
:104F7000D12C7601FE01B4904AE0C701B6010E942F
:104F8000B12684E792E00E94A4268B2D0E9424275C
:104F9000BA1012C0E0910401F0910501EC0DFD1D65
:104FA0008491DF91CF911F910F91FF90EF90DF904F
:104FB000CF90BF90AF9008952196FFEFCF1ADF0AF0
:104FC000EF0AFF0A86E1C816D104E104F10491F664
:104FD00088E2E7CFCF93DF93C42F61FF2BC081E03E
:104FE00080939B028C2F0E94AA27E82F8E2F8F730D
:104FF0001092270365E00E943B38292F90E0EC01D6
:10500000C65FDE4F81E090E0A0E0B0E004C0880F12
:10501000991FAA1FBB1F2A95D2F72881822B88834C
:10502000E6FF05C080910A01816080930A01DF914B
:10503000CF91089565FDD3CF10929B02433471F454
:10504000109225038C2F0E94FF16E82F883271F6EC
:10505000EC2FF0E0E25EFD4FE491C8CF483219F446
:1050600010929D02EFCF493219F410929C02EACFC0
:10507000423519F41092A002E5CF413519F410928F
:10508000A102E0CF403519F410929F02DBCF4F34DC
:10509000C9F610929E02D6CFCF93C42F61FF3BC0BA
:1050A00081E080939B028C2F0E94AA27E82FE6FBC9
:1050B000222720F98E2F8F7365E00E943B38392F0D
:1050C00021110DC0EE2359F0EE3149F0E43239F0F0
:1050D00091E0909327038093090130930801E82F12
:1050E000F0E0E65FFE4F81E090E0A0E0B0E004C0B9
:1050F000880F991FAA1FBB1F3A95D2F78095908100
:1051000089238083222329F080910A018E7F809356
:105110000A01CF91089565FDC3CF10929B024334DD
:1051200081F481E0809325038C2F0E94FF16E82FE5
:10513000883209F0BCCFEC2FF0E0E25EFD4FE49145
:10514000B6CF483221F481E080939D02EDCF493201
:1051500021F481E080939C02E7CF423521F481E085
:105160008093A002E1CF413521F481E08093A10238
:10517000DBCF403521F481E080939F02D5CF4F34BF
:1051800099F681E080939E02CFCF2F923F924F926B
:105190005F926F927F928F929F92AF92BF92CF92C7
:1051A000DF92EF92FF920F931F93CF93DF93CDB7D0
:1051B000DEB72D970FB6F894DEBF0FBECDBF8B8341
:1051C0006C834D8329830E94BD062B013C012FE394
:1051D000422255246624772481EB95E00E94922692
:1051E0009D81892F90E09E838D83F981EF2FF0E0E0
:1051F000F887EF833C81232F30E03A87298781E0CD
:105200000E94A90520E230E040E550E070E060E057
:1052100090E080E00E94A10E28E130E049E150E0FA
:1052200067E070E087E690E00E94A10E28E030E0A1
:1052300048E150E070E060E088E690E00E94A10E56
:1052400020E230E048E150E070E060E080E590E08E
:105250000E94A10E82E00E94A9059AE0892E91E0A9
:10526000992E2BE1A22E21E0B22E10E2F12CE12C9E
:1052700084E0E816F1040CF4DCC088E0811BE82F20
:10528000F0E0FA83E9831F01F7E02F1A310800E00C
:10529000D12CC12C24E0E216F1040CF4CCC038E48B
:1052A000301B3B87F501EC0DFD1D80818C8781E073
:1052B0000E94A9059C85492F990F550BFB85EF2F5F
:1052C000F0E0FD87EC8769817A81CF0102960E9428
:1052D0008F112B81222399F08D819E81E816F9068A
:1052E00071F4EF81F885CE16DF0649F428E030E04E
:1052F00048E050E0B1018C859D850E94A10E82E0BE
:105300000E94A905F401808190E00C2C02C09595C3
:1053100087950A94E2F780FD09C028E030E048E074
:1053200050E0B1018C859D850E946D0EFFEFCF1A74
:10533000DF0A085F083209F0ADCF2FEFE21AF20A58
:1053400018503FEF831A930A85E0A80EB11C103E57
:1053500009F08ECF809113010E94B818482F880F52
:10536000550B67E070E089E590E00E948F119B810A
:10537000992309F40DC1809114010E94B818482F97
:10538000880F550B6FE170E089E590E00E948F1166
:10539000809115010E94B818482F880F550B63E1C2
:1053A00070E081E590E00E948F11809116010E94CB
:1053B000B818482F880F550B63E170E081E690E044
:1053C0000E948F11809118010E94B818482F880FF1
:1053D000550B67E070E089E690E00E948F118091A4
:1053E00019010E94B818482F880F550B67E070E02C
:1053F00081E790E00E948F11809117010E94B818F8
:10540000482F880F550B67E070E089E790E00E9415
:105410008F11EC81E73008F5E985FA85EE5EF54DF0
:105420000C9469381D2A4E2A602A742AB32A892AC4
:105430009E2A812F24CF0B8735CFF0E24F165104DF
:105440006104710450F428E030E048E050E070E07E
:1054500060E087E590E00E946D0E81EB95E00E9490
:1054600068268111CCCE81E02D960FB6F894DEBF70
:105470000FBECDBFDF91CF911F910F91FF90EF90A5
:10548000DF90CF90BF90AF909F908F907F906F9064
:105490005F904F903F902F900C94A9050E94BD06FD
:1054A0006F737727882799276032710581059105E9
:1054B000A0F628E030E048E050E068E170E0C9CFB5
:1054C0000E94BD066F737727882799276032710580
:1054D0008105910510F628E030E048E050E06CE0EE
:1054E00070E08FE490E0B7CF0E94BD066F7377271E
:1054F00088279927603271058105910508F0ADCFA5
:1055000028E030E048E050E06CE070E08FE590E0AB
:10551000A2CF0E94BD066F73772788279927603234
:1055200071058105910508F098CF28E030E048E04A
:1055300050E070E060E087E690E08DCF0E94BD060D
:105540006F73772788279927603271058105910548
:1055500008F083CF28E030E048E050E070E060E001
:105560008FE690E078CF0E94BD066F73772788277B
:105570009927603271058105910508F06ECF28E00A
:1055800030E048E050E070E060E087E790E063CF13
:1055900080911A0180FD0AC028E030E048E050E028
:1055A00070E060E087E590E00E946D0E809114014C
:1055B0000E94B818482F880F550B6FE170E089E5FD
:1055C00090E00E948F1180911A0181FD0AC028E0AD
:1055D00030E048E050E068E170E087E590E00E944C
:1055E0006D0E809115010E94B818482F880F550B39
:1055F00063E170E081E590E00E948F1180911A01D3
:1056000082FD0AC028E030E048E050E06CE070E045
:105610008FE490E00E946D0E809116010E94B818F0
:10562000482F880F550B63E170E081E690E00E94FF
:105630008F1180911A0183FD0AC028E030E048E014
:1056400050E06CE070E08FE590E00E946D0E80917C
:1056500018010E94B818482F880F550B67E070E0BA
:1056600089E690E00E948F1180911A0185FD0AC0A1
:1056700028E030E048E050E070E060E087E690E04D
:105680000E946D0E809119010E94B818482F880F52
:10569000550B67E070E081E790E00E948F118091E8
:1056A0001A0186FD0AC028E030E048E050E070E0D2
:1056B00060E08FE690E00E946D0E809117010E94DD
:1056C000B818482F880F550B67E070E089E790E025
:1056D0000E948F1180911A0184FD0AC028E030E0F9
:1056E00048E050E070E060E087E790E00E946D0ED7
:1056F000809128036AE971E0811102C066E971E0D6
:105700008EEB93E00E9404382AE235E03093B40532
:105710002093B30566E170E088E690E00E94961160
:10572000E0912603F0E0EE0FFF1FE859FA4F659174
:1057300074918EEB93E00E9404388AE295E0909396
:10574000B4058093B3056EE170E088E690E00E94B6
:10575000961183CE85ED8093BC008091B503909126
:10576000B603A091B703B091B8030796A11DB11D70
:1057700023E0B695A795979587952A95D1F720911F
:10578000BC0024FD03C01092B30308954091B503FB
:105790005091B6036091B7037091B803452B462B27
:1057A000472B69F30097A105B10541F02AE22A953C
:1057B000F1F700C00197A109B109E1CF8091B403CD
:1057C0000C9401133F924F925F926F927F928F924F
:1057D0009F92AF92BF92CF92DF92EF92FF920F9380
:1057E0001F93CF93DF9300D0CDB7DEB77C014DB6CA
:1057F0005EB6DC015C968C9181111BC0312C832D2F
:105800000FB6F8945EBE0FBE4DBE0F900F90DF91A5
:10581000CF911F910F91FF90EF90DF90CF90BF90AD
:10582000AF909F908F907F906F905F904F903F9040
:1058300008950E94BD06F701808C918CA28CB38CD8
:10584000681979098A099B0997FDD8CF5701D12C8E
:10585000C12C6DB67EB6D5011A964C911A971B963F
:105860008C9190E08134910508F054C09A8389832B
:1058700089819A812DB73EB7281B390B0FB6F89452
:105880003EBF0FBE2DBF8DB79EB701968C019E0106
:105890002F5F3F4FD70116966C91169714968D91F6
:1058A0009C910E941C26382E811115C029813A81B5
:1058B0002330310580F0F701EC0DFD1D80899189C1
:1058C000009749F0DC01ED91FC910190F081E02D11
:1058D00040E0B70109950FB6F8947EBE0FBE6DBECD
:1058E000B3E0AB0EB11CE2E0CE0ED11CF4E0CF165B
:1058F000D10409F0AECF0E94BD06D7015D962C9170
:10590000620F711D811D911DF701608F718F828F54
:10591000938F75CFE0E4F0E0FA83E983A9CF6F922B
:105920007F928F929F92AF92BF92CF92DF92EF922F
:10593000FF920F931F93CF93DF9300D0CDB7DEB7C5
:105940007C01CDB6DEB6DC0157968C91811118C072
:10595000912C892D0FB6F894DEBE0FBECDBE0F90F0
:105960000F90DF91CF911F910F91FF90EF90DF90FB
:10597000CF90BF90AF909F908F907F906F90089541
:105980000E94BD06F70183889488A588B6886819A7
:1059900079098A099B0997FDDBCFADB6BEB6428572
:1059A000838590E08134910508F045C09A8389830E
:1059B00089819A812DB73EB7281B390B0FB6F89411
:1059C0003EBF0FBE2DBF8DB79EB701968C019E01C5
:1059D0002F5F3F4FD70116966C91169714968D91B5
:1059E0009C910E941C26982E811113C029813A8116
:1059F0002330310570F0F70185859685009749F0D1
:105A0000DC01ED91FC910190F081E02D40E0B701C7
:105A100009950FB6F894BEBE0FBEADBE0E94BD067E
:105A2000F701208D620F711D811D911D638B748B99
:105A3000858B968B8ECF80E490E0B8CFFF920F934A
:105A40001F93CF93DF93EC01F62E08811981C801D3
:105A50000E940B38F81621F06F2DC8010E941338F0
:105A6000CE01DF91CF911F910F91FF900895EF929A
:105A7000FF920F931F93CF93DF9300D0CDB7DEB784
:105A80001A82198261E0CE0101960E941E2D60915A
:105A9000260381E090E09A838983CE0101960E94DB
:105AA0001E2D83E1E82E81E0F82E02E010E0F701E0
:105AB00061917F011A830983CE0101960E941E2DF8
:105AC0000F5F1F4F0930110591F70F900F90DF9175
:105AD000CF911F910F91FF90EF9008951F920F9219
